:0200000080146A
:030003000200A652
:100013000200C5311675891175A885D288D28A75F3
:10002300B800C289C28B75900075300075310075B8
:100033003200900307314B310474013135310480B0
:10004300003116900300314BE53275F00A842430F9
:100053003140E5F024303140E532B40004C29080F1
:1000630002D290E53060117E64D29111EDC29111FC
:10007300F6DEF6753000800AC291D29111E4C29186
:1000830011FDE53160117E64D29211EDC29211F639
:10009300DEF675310080AAC292D29211E4C29211A7
:1000A300FD809EC0E0C0D0C0F0783211E4D8FCE5FA
:1000B30032B4FF0280050532753001D0F0D0D0D0C4
:1000C300E032C0E0C0D0C0F0783211E4D8FCE532B1
:1000D300B4000280051532753101D0F0D0D0D0E0E4
:1000E300327A0279FAD9FEDAFA227A0379FAD9FE58
:1000F300DAFA227B25310BDBFC227B26310BDBFC7E
:10010300227B28310BDBFC227CFA00DCFD227DFF05
:10011300DDFE227438313531047401313531047414
:100123000E31353104740631353104748031353183
:0F0133000422F5A0C2B7D2B511E4C2B522F5A0DF
:10014200D2B7D2B511E4C2B522E49360073140318F
:0501520004A380F5226A
:10030000436F756E743A0053797374656D2052654E
:0403100061647900AB
:00000001FF
